:020000040800F2
:10000000EC580120455C0008B15C0008B15C0008B8
:10001000B15C0008B15C0008B15C000800000000A1
:10002000000000000000000000000000DDF00008FB
:10003000B15C000800000000F9F1000849F2000876
:10004000B15C0008B15C0008B15C0008B15C00085C
:10005000B15C0008B15C0008B15C0008B15C00084C
:10006000B15C0008B15C0008B15C0008B15C00083C
:10007000B15C0008B15C0008B15C0008B15C00082C
:10008000B15C0008B15C0008B15C0008B15C00081C
:10009000B15C0008B15C0008B15C0008B15C00080C
:1000A000B15C0008B15C0008B15C0008B15C0008FC
:1000B000B15C0008B15C0008B15C0008B15C0008EC
:1000C000B15C0008B15C0008B15C0008B15C0008DC
:1000D000B15C0008B15C0008B15C0008B15C0008CC
:1000E000B15C0008B15C0008B15C0008B15C0008BC
:1000F000B15C0008B15C0008B15C0008B15C0008AC
:10010000B15C0008B15C0008B15C0008B15C00089B
:10011000B15C0008B15C0008B15C0008B15C00088B
:10012000B15C0008B15C0008B15C0008B15C00087B
:10013000B15C0008D97B0008B15C0008B15C000824
:10014000B15C0008B15C0008B15C0008B15C00085B
:10015000B15C0008B15C0008B15C0008B15C00084B
:10016000B15C0008B15C0008B15C0008B15C00083B
:10017000B15C0008B15C0008B15C0008B15C00082B
:10018000B15C0008B15C000880B483B000AF786057
:100190004FF0DC03C4F227237A681A6007F10C07DA
:1001A000BD4680BC704700BF80B485B000AF7860AA
:1001B00041F6BC03C2F200031A687B681B88D3189F
:1001C000FB607A68FB689A422ED0FB681B79002B93
:1001D0002AD141F6C003C2F200031B68FA689A42B2
:1001E00022D041F6C403C2F200031A68FB689A42A7
:1001F00005D141F6C403C2F200037A681A60FB68B5
:100200001A887B681A8041F6BC03C2F200031A68A0
:10021000FB681B88D218796841F6BC03C2F2000360
:100220001B68CB1A9BB2538041F6BC03C2F2000399
:100230001A687B685B88D318BB60BA687B689A428F
:1002400026D0BB681B79002B22D141F6C403C2F231
:1002500000031A687B689A4205D141F6C403C2F2D2
:100260000003BA681A607B681A88BB681A8041F676
:10027000BC03C2F200031A687B681B88D218B968F5
:1002800041F6BC03C2F200031B68CB1A9BB2538039
:1002900007F11407BD4680BC704700BF80B582B02F
:1002A00000AF40F2A843C2F2000303F1030323F0BE
:1002B00003031A4641F6BC03C2F200031A6041F67A
:1002C000BC03C2F200031B687B607B684FF4A05242
:1002D0001A807B684FF000025A807B684FF0000262
:1002E0001A7141F6BC03C2F200031B6803F5A05269
:1002F00041F6C003C2F200031A6041F6C003C2F225
:1003000000031B684FF001021A7141F6C003C2F2EC
:1003100000031B684FF4A0521A8041F6C003C2F2DA
:1003200000031B684FF4A0525A804FF001000DF0FB
:100330009BFD024641F6C803C2F200031A6041F673
:10034000BC03C2F200031A6841F6C403C2F2000300
:100350001A6043F66C63C2F201034FF4A052A3F893
:10036000902007F10807BD4680BD00BF80B584B06E
:1003700000AF78607B68002B6CD041F6BC03C2F202
:1003800000031B687A689A4241F6BC03C2F200037C
:100390001B687A689A4207D341F6C003C2F2000391
:1003A0001B687A689A420FD343F66C63C2F201036A
:1003B000B3F8983003F101039AB243F66C63C2F2CA
:1003C0000103A3F8982046E041F6C803C2F20003F7
:1003D0001B6818464FF000010DF0B0FD7B68A3F1DB
:1003E0000803FB60FB684FF000021A7141F6C4037A
:1003F000C2F200031B68FA689A4205D241F6C403B0
:10040000C2F20003FA681A6043F66C63C2F2010399
:10041000B3F89220F96841F6BC03C2F200031B68EE
:10042000CB1A99B2FB681B88CB1A9BB2D3189AB22D
:1004300043F66C63C2F20103A3F89220F868FFF759
:10044000B3FE41F6C803C2F200031B6818460DF064
:10045000B1FD00E000BF07F11007BD4680BD00BF41
:1004600080B586B000AF78600B467B807B8803F157
:1004700003039BB223F003037B807B880B2B02D802
:100480004FF00C037B807B88B3F5A05F02D94FF05F
:100490000003FDE041F6BC03C2F200031B687A686A
:1004A0009A4241F6BC03C2F200031B687A689A4282
:1004B00007D341F6C003C2F200031B687A689A4270
:1004C00010D343F66C63C2F20103B3F8983003F122
:1004D00001039AB243F66C63C2F20103A3F89820B9
:1004E0007B68D5E07B68A3F108037B617A6941F6FC
:1004F000BC03C2F200031B68D31A7B827B691A8893
:100500007B8AD31A9BB2A3F108033B827A883B8A89
:100510009A4202D94FF00003BAE07A883B8A9A42A5
:1005200001D17B68B4E041F6C803C2F200031B6846
:1005300018464FF000010DF001FD43F66C63C2F266
:100540000103B3F8922079883B8ACB1A9BB2D31867
:100550009AB243F66C63C2F20103A3F8922041F60B
:10056000BC03C2F200031A687B691B88D318FB60C6
:10057000FB681B79002B42D1FB681B887B817A8A40
:100580007B88D3189BB203F108033B8141F6C40377
:10059000C2F200031A68FB689A420BD141F6BC0311
:1005A000C2F200031A683B89D21841F6C403C2F2B2
:1005B00000031A6041F6BC03C2F200031A683B89CB
:1005C000D318FB60FB684FF000021A71FB687A8950
:1005D0001A80FB687A8A5A807B693A891A80FB689C
:1005E0001B88B3F5A05F4AD041F6BC03C2F20003FA
:1005F0001A68FB681B88D3183A895A803FE07B88C9
:1006000003F114023B8A9A4239D87A8A7B88D3183C
:100610009BB203F108033B8141F6BC03C2F2000325
:100620001A683B89D318FB6041F6C403C2F2000389
:100630001B68FA689A4205D241F6C403C2F200036D
:10064000FA681A60FB684FF000021A717B691A8819
:10065000FB681A80FB687A8A5A807B693A891A801B
:10066000FB681B88B3F5A05F09D041F6BC03C2F25A
:1006700000031A68FB681B88D3183A895A8041F630
:10068000C803C2F200031B6818460DF093FC7B6898
:10069000184607F11807BD4680BD00BF80B586B07B
:1006A00000AF0346FB80FB88002B02D14FF0000314
:1006B00053E1FB8803F103039BB223F00303FB80A8
:1006C000FB880B2B02D84FF00C03FB80FB88B3F5A3
:1006D000A05F02D94FF000033FE141F6C803C2F228
:1006E00000031B6818464FF000010DF027FC41F68F
:1006F000C403C2F200031B681A4641F6BC03C2F2EF
:1007000000031B68D31AFB8207E141F6BC03C2F267
:1007100000031A68FB8AD3183B613B691B79002BE5
:1007200040F0F2803B691B881A46FB8AD31AA3F17A
:100730000802FB889A42C0F0E7803B691B881A4692
:10074000FB8AD31AA3F10802FB8803F114039A422F
:100750005CD3FA8AFB88D3189BB203F10803FB81B0
:1007600041F6BC03C2F200031A68FB89D318BB60D0
:10077000BB684FF000021A713B691A88BB681A8087
:10078000BB68FA8A5A803B69FA891A803B694FF044
:1007900001021A71BB681B88B3F5A05F09D041F64E
:1007A000BC03C2F200031A68BB681B88D318FA891D
:1007B0005A8043F66C63C2F20103B3F89220FB88BF
:1007C000D3189BB203F108039AB243F66C63C2F2EA
:1007D0000103A3F8922043F66C63C2F20103B3F85D
:1007E000942043F66C63C2F20103B3F892309A424C
:1007F00045D243F66C63C2F20103B3F8922043F68C
:100800006C63C2F20103A3F8942038E03B694FF017
:1008100001021A7143F66C63C2F20103B3F892202D
:100820003B69198841F6BC03C2F200031B681846F5
:100830003B69C31A9BB2CB189BB2D3189AB243F64A
:100840006C63C2F20103A3F8922043F66C63C2F218
:100850000103B3F8942043F66C63C2F20103B3F8CA
:1008600092309A420BD243F66C63C2F20103B3F8A2
:10087000922043F66C63C2F20103A3F8942041F680
:10088000C403C2F200031B683A699A4230D110E0F7
:1008900041F6BC03C2F200031A6841F6C403C2F277
:1008A00000031B681B88D21841F6C403C2F2000380
:1008B0001A6041F6C403C2F200031B681B79002BC7
:1008C0000BD041F6C403C2F200031A6841F6C0031C
:1008D000C2F200031B689A42DAD141F6C403C2F2A5
:1008E00000031A6841F6C003C2F200031B689A4273
:1008F00041F6C803C2F200031B6818460DF05AFB0C
:100900003B6903F1080328E041F6BC03C2F200038F
:100910001A68FB8AD3181B88FB82FA8AFB88C3F506
:10092000A0539A42FFF6F1AE43F66C63C2F20103A4
:10093000B3F8963003F101039AB243F66C63C2F246
:100940000103A3F8962041F6C803C2F200031B6816
:1009500018460DF02FFB4FF00003184607F118075B
:10096000BD4680BD80B586B000AFF860B9607A60E2
:1009700007F11003F86819467A6812F025FC7861CF
:100980007B69002B0AD13A69FB689A4206D1BB68A1
:100990004FF000021A604FF0000304E0BB684FF014
:1009A00001021A607B69184607F11807BD4680BD31
:1009B00080B400AF40F23C03C2F2010344F2DC72A7
:1009C000C2F201021A604FF2DC73C2F200030C4A59
:1009D0001A604FF2DC73C2F200031A6840F234036B
:1009E000C2F201031A6040F23C03C2F201031A682A
:1009F00040F23003C2F201031A60BD4680BC70476A
:100A0000DB48012080B483B000AF78604FF2DC7324
:100A1000C2F200031B687A689A4206D340F23C0394
:100A2000C2F201031B687B6003E07B6803F10103F2
:100A30007B607B68184607F10C07BD4680BC704799
:100A400080B582B000AF46F22800C4F202000DF07B
:100A5000F7FD0346C3F5807244F2DC73C2F2010372
:100A6000D21840F23003C2F201031A6040F23003A0
:100A7000C2F201031A68164B9A4208D140F23003C1
:100A8000C2F2010344F2DC72C2F201021A6040F2C7
:100A90003403C2F201031B681846FFF7B3FF786006
:100AA00040F23003C2F201031A687B689A4202D115
:100AB0004FF0010307E040F23403C2F201037A6809
:100AC0001A604FF00003184607F10807BD4680BDC5
:100AD000DC48012080B487B000AF786039604FF007
:100AE00000037B614FF000033B614FF00003FB60AC
:100AF00035E03B697A68D3181B78202B05D03B6919
:100B00007A68D3181B78092B0CD1FB68002B22D0F4
:100B10003B697A68D3184FF000021A704FF0000357
:100B2000FB6018E0FB68002B15D14FF00103FB6060
:100B30007B690E2B1ADC3B68002B08D07B694FEADF
:100B400083033A68D3183A6979688A181A607B690E
:100B500003F101037B613B6903F101033B613B69E5
:100B60007A68D3181B78002BC3D100E000BF3B6824
:100B7000002B07D07B694FEA83033A68D3184FF004
:100B800000021A607B69184607F11C07BD4680BC4D
:100B9000704700BF80B485B000AF78604FF00003AD
:100BA000FB605AE0FB687A68D3181B78082B01D0E9
:100BB0007F2B4ED1FB68002B22D14FF00003BB608E
:100BC0000DE0BB687A68D318BA6802F1010279684F
:100BD0008A1812781A70BB6803F10103BB60BB6806
:100BE0007A68D3181B78002BEBD1BB6803F10103A3
:100BF0007A68D3184FF000021A704FF0FF33FB6091
:100C0000FB68002B24DDFB68BB600FE0BB6803F1D1
:100C1000FF337A68D318BA6802F1010279688A183A
:100C200012781A70BB6803F10103BB60BB687A6875
:100C3000D3181B78002BE9D1BB6803F101037A6854
:100C4000D3184FF000021A70FB68A3F10203FB6097
:100C500000BFFB6803F10103FB60FB687A68D318EF
:100C60001B78002B9ED107F11407BD4680BC70474E
:100C700080B594B000AF78607868FFF78BFF07F11C
:100C8000080378681946FFF725FFB864BB6C002B92
:100C90007ED04FF00003FB6464E043F26032C0F6A4
:100CA0000102F96C0B464FEA43035B184FEAC3039A
:100CB000D3181A68BB681046194611F001FF0346A5
:100CC000002B4BD1BB6C03F1FF3043F26032C0F616
:100CD0000102F96C0B464FEA43035B184FEAC3036A
:100CE000D31803F104031B68984228DBBB6C03F1A3
:100CF000FF3043F26032C0F60102F96C0B464FEA56
:100D000043035B184FEAC303D31803F108031B68BE
:100D1000984214DC43F26032C0F60102F96C0B46D3
:100D20004FEA43035B184FEAC303D31803F10C03E4
:100D30001B6807F10802B86C114698472EE0BB68A3
:100D400043F27C40C0F6010019460CF0D1FE43F29C
:100D50005440C0F601000CF0CBFE1FE0FB6C03F129
:100D60000103FB6443F25043C0F601031B68FA6CB5
:100D70009A4292DBBB6843F2A040C0F601001946DC
:100D80000CF0B6FE43F26040C0F601000CF0B0FE7D
:100D900043F25440C0F601000CF0AAFE07F15007E0
:100DA000BD4680BD80B598B000AF4FF00003FB6535
:100DB0004FF00003BB6540F23403C2F201031B682D
:100DC0007B651DE040F23403C2F201031B681A7810
:100DD00007F10401FB6DCB181A7007F10402FB6DDB
:100DE000D3181B780D2B07D141F6CC03C2F20003B8
:100DF0004FF000021A6008E0FB6D03F10103FB6590
:100E0000FFF71EFE0346002BDCD007F10402FB6D4A
:100E1000D3181B780D2B28D14FF00003BB650FE0D2
:100E200007F10402BB6DD3181A784FF2E073C2F2D7
:100E30000003B96D5B181A70BB6D03F10103BB654C
:100E4000BA6DFB6D9A42EBDDBB6D03F1FF324FF2E1
:100E5000E073C2F200034FF0000199544FF2E070CA
:100E6000C2F20000FFF704FF05E040F23403C2F2D3
:100E700001037A6D1A6007F16007BD4680BD00BFAF
:100E800090B585B000AF7860396043F22450C0F669
:100E900001000CF02DFE43F22850C0F601000CF0CA
:100EA00027FE43F25450C0F601000CF021FE43F23D
:100EB0002450C0F601000CF01BFE43F28850C0F62F
:100EC00001000CF015FE43F2BC50C0F601000CF01E
:100ED0000FFE43F20460C0F601000CF009FE43F27D
:100EE0003C60C0F601000CF003FE43F27460C0F6F3
:100EF00001000CF0FDFD43F2A860C0F601000CF00B
:100F0000F7FD43F22450C0F601000CF0F1FD43F26E
:100F1000E060C0F601000CF0EBFD43F22450C0F697
:100F200001000CF0E5FD43F21470C0F601000CF076
:100F3000DFFD4FF00003FB6028E045F22842C2F2DB
:100F40000002F9680B464FEA83035B184FEA8303FC
:100F5000D3181C6845F22842C2F20002F9680B4619
:100F60004FEA83035B184FEA8303D31803F110039E
:100F70001B681B6843F2EC40C0F6010021461A468C
:100F80000CF0B6FDFB6803F10103FB604EF2343355
:100F9000C0F601031B68FA689A42CEDB43F2544064
:100FA000C0F601000CF0A4FD07F11407BD4690BD8A
:100FB000B0B584B000AF7860396043F22450C0F619
:100FC00001000CF095FD4FF00003FB6036E043F2AA
:100FD0006032C0F60102F9680B464FEA43035B1822
:100FE0004FEAC303D3181D6843F26032C0F6010212
:100FF000F9680B464FEA43035B184FEAC303D31863
:1010000003F110031C6843F26032C0F60102F96874
:101010000B464FEA43035B184FEAC303D31803F1AF
:1010200014031B6843F2DC40C0F601002946224647
:101030000CF05EFDFB6803F10103FB6043F25043DB
:10104000C0F601031B68FA689A42C0DB43F25440C1
:10105000C0F601000CF04CFD07F11007BD46B0BD15
:1010600080B582B000AF7860396043F23070C0F66E
:1010700001000CF03DFD43F24070C0F601000CF0A1
:1010800037FD43F27470C0F601000CF031FD43F2FD
:101090004070C0F601000CF02BFD4FF63000C2F29C
:1010A000000009F053FD0EF075F843F2A870C0F689
:1010B00001004FF63001C2F200010CF019FD0EF0F4
:1010C0007FF843F25440C0F601000CF011FD07F127
:1010D0000807BD4680BD00BF80B58CB000AF78600A
:1010E00039604FF00103FB6243F2AC73C0F60103B9
:1010F0007B627B68012B06DC43F2B070C0F6010016
:101100000CF0F6FC0BE24FF00003FB6211E0FB6A0F
:101110004FEA83033A68D3181A68FB6A4FEA8303DD
:1011200007F13001CB1843F8282CFB6A03F10103C7
:10113000FB62FB6A032BEADDBB68184600F04EFA3F
:1011400040F23803C2F201031B683B623B6A012B89
:1011500040F0C9804FF00003BB62B4E0F86845F28C
:101160002842C2F20002B96A0B464FEA83035B18B9
:101170004FEA8303D3181B68194611F0A1FC0346FC
:10118000002B40F09C803B691846796A11F098FC6E
:101190000346002B5CD17A6907F118031046194603
:1011A0004FF00A02FFF7DEFB0346FB61FB69002BF1
:1011B00006D143F2B070C0F601000CF099FCAEE12C
:1011C00045F22842C2F20002B96A0B464FEA830395
:1011D0005B184FEA8303D31803F108031B684FF031
:1011E00001021A6045F22842C2F20002B96A0B46B7
:1011F0004FEA83035B184FEA8303D31803F10C0310
:101200001B684FF001021A6045F22842C2F2000248
:10121000B96A0B464FEA83035B184FEA8303D3187E
:1012200003F110031B68FA691A6045F22842C2F202
:101230000002B96A0B464FEA83035B184FEA830347
:10124000D31803F104031B68184609F0FFFA66E19E
:1012500045F22842C2F20002B96A0B464FEA830304
:101260005B184FEA8303D31803F108031B684FF0A0
:1012700001021A6045F22842C2F20002B96A0B4626
:101280004FEA83035B184FEA8303D31803F10C037F
:101290001B684FF000021A6045F22842C2F20002B9
:1012A000B96A0B464FEA83035B184FEA8303D318EE
:1012B00003F104031B68184609F0C8FA2FE1BB6A62
:1012C00003F10103BB624EF23433C0F601031B6825
:1012D000BA6A9A42FFF642AF43F2D070C0F60100FC
:1012E0000CF006FC1BE13B6A022B3DD14FF00003E2
:1012F000BB622AE0F86845F22842C2F20002B96AED
:101300000B464FEA83035B184FEA8303D3181B682D
:10131000194611F0D5FB0346002B12D145F22842A5
:10132000C2F20002B96A0B464FEA83035B184FEA28
:101330008303D31803F108031B684FF000021A60FF
:10134000EDE0BB6A03F10103BB624EF23433C0F639
:1013500001031B68BA6A9A42CCDB43F2D070C0F634
:1013600001000CF0C5FBDAE03B6A032B43D14FF0E0
:101370000003BB6230E0F86845F22842C2F2000286
:10138000B96A0B464FEA83035B184FEA8303D3180D
:101390001B68194611F094FB0346002B18D145F247
:1013A0002842C2F20002B96A0B464FEA83035B1877
:1013B0004FEA8303D31803F104031B68184609F0AE
:1013C000B5F943F2EC70C0F601000CF091FBA6E019
:1013D000BB6A03F10103BB624EF23433C0F6010372
:1013E0001B68BA6A9A42C6DB43F2D070C0F60100AD
:1013F0000CF07EFB93E03B6A042B43D14FF00003DB
:10140000BB6230E0F86845F22842C2F20002B96AD5
:101410000B464FEA83035B184FEA8303D3181B681C
:10142000194611F04DFB0346002B18D145F2284216
:10143000C2F20002B96A0B464FEA83035B184FEA17
:101440008303D31803F104031B68184609F0FEF95F
:1014500043F60800C0F601000CF04AFB5FE0BB6AEF
:1014600003F10103BB624EF23433C0F601031B6883
:10147000BA6A9A42C6DB43F2D070C0F601000CF0A3
:1014800037FB4CE03B6A052B43D14FF00003BB62B6
:1014900030E0F86845F22842C2F20002B96A0B4611
:1014A0004FEA83035B184FEA8303D3181B6819467E
:1014B00011F006FB0346002B18D145F22842C2F278
:1014C0000002B96A0B464FEA83035B184FEA8303B5
:1014D000D31803F104031B68184609F031F843F6EA
:1014E0001C00C0F601000CF003FB18E0BB6A03F11E
:1014F0000103BB624EF23433C0F601031B68BA6AC3
:101500009A42C6DB43F2D070C0F601000CF0F0FA4C
:1015100005E043F2B070C0F601000CF0E9FA07F103
:101520003007BD4680BD00BF80B582B000AF786097
:10153000396045F23043C2F200031B6843F63400C1
:10154000C0F6010019460CF0D3FA45F23043C2F25E
:1015500000034FF000021A6045F23043C2F200036C
:101560001B6843F65C00C0F6010019460CF0C0FA97
:1015700043F25440C0F601000CF0BAFA07F1080734
:10158000BD4680BD80B582B000AF7860396043F65B
:101590008400C0F601000CF0ABFA41F6CC03C2F2B5
:1015A00000034FF001021A6007F10807BD4680BD35
:1015B00080B584B000AF78604FF06403FB6009F041
:1015C000B1FA0346BB60FFF7F3F9FFF7EBFB07F156
:1015D00008031846F96809F013F8F6E780B588B0F3
:1015E00000AF786043F28023C0F60103FB6143F251
:1015F000B823C0F60103BB6143F2DC23C0F601034C
:101600007B6143F2F823C0F601033B6143F21C33D4
:10161000C0F60103FB604FF00003BB60F869796816
:1016200011F04EFA0346002B09D14FF00103BB60C5
:1016300040F23803C2F20103BA681A604DE0B8699B
:10164000796811F03DFA0346002B09D14FF00203EF
:10165000BB6040F23803C2F20103BA681A603CE092
:101660007869796811F02CFA0346002B09D14FF004
:101670000303BB6040F23803C2F20103BA681A6088
:101680002BE03869796811F01BFA0346002B09D169
:101690004FF00403BB6040F23803C2F20103BA68A2
:1016A0001A601AE0F868796811F00AFA0346002B0C
:1016B00009D14FF00503BB6040F23803C2F20103C9
:1016C000BA681A6009E04FF00003BB6040F23803CB
:1016D000C2F20103BA681A6000BF07F12007BD46D5
:1016E00080BD00BF80B500AF00F010FE41F6D00312
:1016F000C2F200031B7803F10103DAB241F6D00312
:10170000C2F200031A7041F6D003C2F200031B7844
:1017100003F00103002B01D000F0D2FB80BD00BF1D
:1017200080B584B000AF78607B681B7C072B00F22B
:10173000BC8001A252F823F059170008FF170008D7
:10174000251800084B1800086B180008AB18000893
:10175000AB1800088B1800084FF00003FB7340F231
:101760005003C2F201031A687B689A420BD140F21F
:101770005003C2F201031B68DA6840F25003C2F260
:1017800001031A602EE040F25003C2F201031A680E
:1017900040F24C03C2F201031A601CE040F24C0319
:1017A000C2F201031B68DA687B689A4208D140F2F2
:1017B0004C03C2F201031B687A68D268DA6011E058
:1017C00040F24C03C2F201031B68DA6840F24C039A
:1017D000C2F201031A6040F24C03C2F201031B681B
:1017E000002BDBD17B684FF00002DA604FF0020083
:1017F000796803F00DFC4FF000037B6061E04FF06F
:101800000003FB7340F24800C2F20100796801F066
:1018100015F84FF00300796803F0FAFB4FF000036E
:101820007B604EE04FF00003FB7340F24000C2F2D9
:101830000100796801F002F84FF00200796803F0C6
:10184000E7FB4FF000037B603BE078684FF001015D
:101850000FF068FA0346FB7397F90F30002B2BD17A
:101860007B684FF005021A7426E078684FF001019A
:101870000FF058FA0346FB7397F90F30002B1DD178
:101880007B684FF005021A7418E078684FF0010188
:101890000FF048FA0346FB7397F90F30002B0FD176
:1018A0007B684FF009021A740AE04FF00003FB73E3
:1018B0004FF000037B6004E000BF02E000BF00E0E7
:1018C00000BF7B68002B06D097F90F30002B02D1A8
:1018D00078680FF0FFFDFB7B5BB2184607F110073D
:1018E000BD4680BD80B58CB002AF786039607B6842
:1018F0001B7C0A2B0CD140F25400C2F20100796823
:1019000000F09CFF4FF00200796803F081FB5BE080
:101910007B689B6D7B627B685B6A3B627B68002BAC
:1019200002D07B681B6801E04FF00003FB607B681E
:1019300003F10403002B02D07B685B6801E04FF0E9
:1019400000033B617B681B8BFB837B681B8CBB8329
:101950007B68D3F89030BB617B685B697B6140F248
:101960004000C2F20100796800F068FF7B689B6F5D
:10197000002B04D07B689B6F184600F025FD7B6828
:101980005B6F002B04D07B685B6F184600F01CFD7A
:101990004FF00200796803F03BFBBB69002B04D0D9
:1019A000BB6978696FF0040198473B68002B0BD046
:1019B00007F10C0207F11003F98B0091B98B01912B
:1019C000786A396A0FF0BCFF07F12807BD4680BD71
:1019D00080B586B000AFF860B9601346FB80FB6845
:1019E0001B7C002B02D04FF0F303BBE0FB88002BE5
:1019F00003D100F0F1F90346FB8040F24803C2F244
:101A000001031B687B611EE07B691B8BFA889A428D
:101A100016D17B69002B10D07B691B68002B0CD082
:101A2000BB68002B09D0BB681B68002B05D07B6905
:101A30001A68BB681B689A4202D14FF0F50391E027
:101A40007B69DB687B617B69002BDDD140F2400361
:101A5000C2F201031B687B611EE07B691B8BFA8865
:101A60009A4216D17B69002B10D07B691B68002B32
:101A70000CD0BB68002B09D0BB681B68002B05D0BD
:101A80007B691A68BB681B689A4202D14FF0F50364
:101A900068E07B69DB687B617B69002BDDD140F20C
:101AA0005003C2F201031B687B611EE07B691B8B44
:101AB000FA889A4216D17B69002B10D07B691B688B
:101AC000002B0CD0BB68002B09D0BB681B68002B17
:101AD00005D07B691A68BB681B689A4202D14FF037
:101AE000F5033FE07B69DB687B617B69002BDDD11F
:101AF00040F25403C2F201031B687B6110E07B6972
:101B00001B8BFA889A4208D17B691A68BB681B68EC
:101B10009A4202D14FF0F50324E07B69DB687B61D8
:101B20007B69002BEBD1BB68002B07D0BB681B681F
:101B3000002B03D0FB68BA6810681860FB68FA884D
:101B40001A8340F25003C2F201031A68FB68DA609C
:101B500040F25003C2F20103FA681A6003F012FE69
:101B60004FF000035BB2184607F11807BD4680BD71
:101B700080B485B000AFF860B9601346FB714FF0D8
:101B8000FB035BB2184607F11407BD4680BC7047E3
:101B900080B584B000AF78600B46FB707B681B7C1F
:101BA000002B02D04FF000039BE07B681B7C012BD5
:101BB00001D17B6895E04FF0030003F07FF9F860F6
:101BC000FB68002B02D14FF000038AE07B685A6962
:101BD000FB685A617B681A8BFB681A83FB684FF0BD
:101BE00001021A747B681A89FB681A81FB681B89D9
:101BF00043F002039AB2FB681A817B68DA7AFB68C9
:101C0000DA727B689A7AFB689A727B68002B02D042
:101C10007B681B6801E04FF00003FA68136040F234
:101C20005003C2F201031A687B689A420BD140F25A
:101C30005003C2F201031B68DA6840F25003C2F29B
:101C400001031A602EE040F25003C2F201031A6849
:101C500040F24C03C2F201031A601CE040F24C0354
:101C6000C2F201031B68DA687B689A4208D140F22D
:101C70004C03C2F201031B687A68D268DA6011E093
:101C800040F24C03C2F201031B68DA6840F24C03D5
:101C9000C2F201031A6040F24C03C2F201031B6856
:101CA000002BDBD17B684FF00002DA604FF00200BE
:101CB000796803F0ADF9FA6841F67133C0F60003B4
:101CC000D36140F24803C2F201031A68FB68DA608C
:101CD00040F24803C2F20103FA681A6003F052FDB1
:101CE000FB68184607F11007BD4680BD80B485B07B
:101CF00000AF78607B685A6A7B681B8DD318FB60E5
:101D00007B68DA6A7B68198F40F2B453994202D833
:101D10007B681B8F01E040F2B453D318FA68D31AE2
:101D2000002B08DB7B681A8D7B685A857B68DB6A31
:101D3000FA68D31A17E07B685A6A7B68DB6AD31AA1
:101D4000002B04DD7B684FF000025A8509E07B68B8
:101D5000DB6A9AB27B685B6A9BB2D31A9AB27B68E1
:101D60005A854FF00003184607F11407BD4680BCA2
:101D7000704700BF80B584B000AF78600B467B80B1
:101D80007B681A8D7B88D3189AB27B681A857B682A
:101D90001A8D40F668339A4203D97B6840F6683260
:101DA0001A857868FFF7A2FF0346FB60FA6840F2E5
:101DB000D9239A420BDD7B6893F8223043F002036B
:101DC000DAB27B6883F8222078680FF083FB07F192
:101DD0001007BD4680BD00BF80B483B000AF04E0F3
:101DE00000BF02E000BF00E000BF40F23003C2F2DB
:101DF00000031B8803F101039AB240F23003C2F2E0
:101E000000031A8040F23003C2F200031B889BB229
:101E10001BB2002B06DA40F23003C2F200034FF48B
:101E200080521A8040F24003C2F201031B687B60BB
:101E30000BE07B681A8B40F23003C2F200031B8870
:101E40009A42CDD07B68DB687B607B68002BF0D149
:101E500040F25403C2F201031B687B600BE07B6815
:101E60001A8B40F23003C2F200031B889A42B9D0A9
:101E70007B68DB687B607B68002BF0D140F2480315
:101E8000C2F201031B687B600BE07B681A8B40F297
:101E90003003C2F200031B889A42A5D07B68DB683E
:101EA0007B607B68002BF0D140F23003C2F200036C
:101EB0001B88184607F10C07BD4680BC704700BF61
:101EC000B0B588B002AF4FF000037B7340F244031B
:101ED000C2F201031B6803F1010240F24403C2F2A3
:101EE00001031A604FF000033B6140F24003C2F26D
:101EF00001031B687B61BDE14FF00003FB734FF0F2
:101F00000003BB737B691B7C022B09D17B6993F8AF
:101F10004A30062B04D1FB7B03F10103FB73A1E0E4
:101F20007B6993F84A300C2B04D1FB7B03F101034E
:101F3000FB7397E07B6993F89C30002B2DD07B6975
:101F4000D3F8983003F101027B69C3F898207B69CC
:101F5000D3F898207B6993F89C3003F1FF3143F666
:101F60003013C0F601035B5C9A427BD37B694FF070
:101F70000002C3F898207B6993F89C30062B08D8A0
:101F80007B6993F89C3003F10103DAB27B6983F833
:101F90009C2078690FF088FE64E07B69DB8E1BB2C1
:101FA000002B06DB7B69DB8E03F101039AB27B69B0
:101FB000DA867B699B6F002B54D07B69DA8E7B6954
:101FC000B3F8483012B21BB29A424BDB7B691B7CE0
:101FD000022B1BD07B69B3F844301BB24FEAE303FA
:101FE0009BB21AB27B69B3F846301BB2D2187B6938
:101FF00093F84A30194643F62013C0F601035B5CA0
:1020000002FA03F39AB27B69A3F848207B694FF088
:102010000002DA867B69B3F85C207B69B3F8523042
:102020009A4238BF13467B817B894FEA53039AB2A9
:102030007B69A3F854207B69B3F854207B691B8F1C
:102040009A4207D27B691B8F4FEA43039AB27B699E
:10205000A3F854207B691A8F7B69A3F85220786912
:102060000FF002FD7B691B7C062B0DD140F244036F
:10207000C2F201031A687B691B6BD31A282B03D9A0
:10208000FB7B03F10103FB737B691B8903F00803EE
:10209000002B55D07B691B7C042B03D07B691B7CF8
:1020A000072B4DD140F24403C2F201031A687B6949
:1020B0001B6BD11A7B69D3F8943003F5242202F606
:1020C000B84244F6D353C1F26203A3FB02034FEAC2
:1020D0005313994208D9FB7B03F10103FB73BB7BCC
:1020E00003F10103BB732BE040F24403C2F201038E
:1020F0001A687B691B6BD21A7B69D3F894107B69D1
:1021000093F89D30184642F2F843C0F2010303FBF6
:1021100000F3C91844F6D353C1F26203A3FB0103D1
:102120004FEA53139A420BD978690FF077FD7B6918
:1021300093F89D3003F10103DAB27B6983F89D20A7
:102140007B691B7C032B0DD140F24403C2F20103D7
:102150001A687B691B6BD31A282B03D9FB7B03F10D
:102160000103FB737B691B7C092B0DD140F24403F7
:10217000C2F201031A687B691B6BD31AF02B03D9D7
:10218000FB7B03F10103FB73FB7B002B3DD07869E4
:1021900000F020FB3B69002B04D07B69DA683B69C7
:1021A000DA6006E07B69DA6840F24003C2F20103BC
:1021B0001A607B69D3F89030002B08D07B69D3F884
:1021C00090307A69526910466FF004019847BB7BE2
:1021D000002B0FD07B69986D7B69596A7A697B699E
:1021E00003F104037C69258B7C69248C00950194A0
:1021F0000FF0A6FB7B69DB687B604FF0020079691A
:1022000002F006FF7B687B6134E07B6993F8343031
:1022100003F10103DAB27B6983F834207B6993F818
:1022200034207B6993F835309A421ED37B694FF096
:10223000000283F834207B69D3F88C30002B0AD05D
:102240007B69D3F88C307A6952691046796998476E
:1022500003467B7302E04FF000037B7397F90D3068
:10226000002B02D178690FF035F97B693B617B69FE
:10227000DB687B617B69002B7FF43EAE4FF000038F
:102280003B6140F25403C2F201031B687B6135E0FD
:102290004FF00003FB7340F24403C2F201031A68DB
:1022A0007B691B6BD31AF02B03D9FB7B03F1010372
:1022B000FB73FB7B002B1CD0786900F08BFA3B6929
:1022C000002B04D07B69DA683B69DA6006E07B6941
:1022D000DA6840F25403C2F201031A607B69DB68DA
:1022E0007B604FF00200796902F092FE7B687B61AF
:1022F00004E07B693B617B69DB687B617B69002B68
:10230000C6D107F11807BD46B0BD00BF90B583B078
:1023100000AF40F24003C2F201031B687B604BE058
:102320007B68DB6F002B28D07B68D3F88430002BD0
:102330000FD07B68D3F884407B685A697B68DB6F79
:10234000104679681A464FF00003A0470346FB7019
:102350000BE07B68DB6F4FF0000079681A464FF0A6
:10236000000300F06FF80346FB7097F90330002B71
:1023700003D17B684FF00002DA677B6893F8223064
:1023800003F00103002B14D07B6893F8223043F054
:102390000203DAB27B6883F8222078680FF09AF89B
:1023A0007B6893F8223023F00303DAB27B6883F86A
:1023B00022207B68DB687B607B68002BB0D107F153
:1023C0000C07BD4690BD00BF80B584B000AF7860FB
:1023D0004FF00003FB730CE07B681B68BB60786800
:1023E00000F010F803461A46FB7BD318FB73BB685A
:1023F0007B607B68002BEFD1FB7B184607F1100751
:10240000BD4680BD80B584B000AF78604FF000035A
:10241000FB737B68002B0FD07B685B68002B06D0BA
:102420007B685B68184609F0C9FB0346FB734FF0F5
:102430000400796802F0ECFDFB7B184607F11007F9
:10244000BD4680BD80B584B000AFF860B9607A60E9
:10245000FB707B68002B09D07B681B89B868194624
:10246000FFF788FC786809F0A9FB08E097F90330CA
:10247000002B04D1B868FFF753F9034601E04FF091
:1024800000035BB2184607F11007BD4680BD00BFD0
:1024900080B586B000AF0346FB714FF07F03FB723F
:1024A0004FF00003FB604FF000033B6140F240033C
:1024B000C2F201031B687B6125E07B695B7CFA79D2
:1024C0009A421DD37B695B7CFA7A9A4218D340F218
:1024D0004403C2F201031A687B691B6BD21AFB68C2
:1024E0009A420DD340F24403C2F201031A687B6999
:1024F0001B6BD31AFB607B693B617B695B7CFB7266
:102500007B69DB687B617B69002BD6D13B69002B43
:1025100004D038694FF00101FFF7E4F907F118071B
:10252000BD4680BD80B584B000AF4FF000037B6036
:102530004FF00003BB6040F25403C2F201031B687A
:10254000FB6018E040F24403C2F201031A68FB6822
:102550001B6BD21A7B689A420AD340F24403C2F240
:1025600001031A68FB681B6BD31A7B60FB68BB60B6
:10257000FB68DB68FB60FB68002BE3D1BB68002BCA
:1025800004D0B8684FF00101FFF7ACF907F110076C
:10259000BD4680BD80B584B000AF0346FB714FF0EF
:1025A000020002F08BFCF860FB68002B36D1FFF7CD
:1025B000B9FF4FF0020002F081FCF860FB68002BCD
:1025C0001AD1FB791846FFF763FF4FF0020002F0C3
:1025D00075FCF860FB68002B0ED043F66C63C2F20A
:1025E0000103B3F8B43003F1FF339AB243F66C63DE
:1025F000C2F20103A3F8B420FB68002B0ED043F60F
:102600006C63C2F20103B3F8B43003F1FF339AB242
:1026100043F66C63C2F20103A3F8B420FB68002BFD
:102620006ED0F8684FF000014FF0A00210F0B2F940
:10263000FB684FF040025A74FB6841F68442A3F8ED
:102640006E20FB684FF00002A3F87020FB6840F694
:1026500068321A85FB6840F668325A85FB684FF08D
:1026600000029A72FB684FF0FF02DA72FB684FF4C7
:1026700006721A87FB684FF00602A3F84820FB6831
:102680004FF00002A3F84420FB684FF00602A3F8C5
:102690004620FB684FF6FF72DA86FB684FF00102B6
:1026A000A3F8522000F034F9B860FB68BA685A66A3
:1026B000FB68BA689A65FB68BA68DA64FB68BA684E
:1026C0009A6640F24403C2F201031A68FB681A6377
:1026D000FB684FF0000283F83420FA6842F2454369
:1026E000C0F60003C2F88430FA684FF45D43C0F2CC
:1026F0006D03C2F89430FB684FF0000283F89D2010
:10270000FB68184607F11007BD4680BD80B500AFD5
:102710004FF04000FFF73EFF0346184680BD00BF64
:1027200080B483B000AF786039607B683A685A61E2
:1027300007F10C07BD4680BC704700BF80B483B072
:1027400000AF786039607B683A68C3F8842007F18D
:102750000C07BD4680BC704780B483B000AF786082
:1027600039607B683A68C3F8802007F10C07BD46E2
:1027700080BC704780B483B000AF786039607B68FC
:102780003A68C3F8902007F10C07BD4680BC70473B
:1027900080B483B000AF786039607B683A68DA61F2
:1027A00007F10C07BD4680BC704700BF80B485B000
:1027B00000AFF860B9601346FB71FB68BA68C3F8F4
:1027C0008C20FB68FA7983F8352007F11407BD46A1
:1027D00080BC704780B582B000AF78607B681B7C9E
:1027E000002B26D07B681B7C0A2B22D07B681B7CAD
:1027F000012B1ED07B68DB6F002B08D07B68DB6F62
:10280000184609F0DBF97B684FF00002DA677B6855
:102810005B6F1846FFF7D8FD7B689B6F1846FFF784
:10282000D3FD7B684FF000025A677B685A6F7B6864
:102830009A6707F10807BD4680BD00BF80B582B02A
:1028400000AF786039607B681A683B689A4205D1AE
:102850007B681B68DA687B681A602BE07B681A6803
:1028600040F24C03C2F201031A601CE040F24C0338
:10287000C2F201031B68DA683B689A4208D140F251
:102880004C03C2F201031B683A68D268DA6011E0B7
:1028900040F24C03C2F201031B68DA6840F24C03B9
:1028A000C2F201031A6040F24C03C2F201031B683A
:1028B000002BDBD13B684FF00002DA603868FFF78D
:1028C00089FF3B681B7C0A2B16D03B681B7C012BC5
:1028D00012D03B6893F8223003F00103002B0BD099
:1028E0003B6893F8223043F00203DAB23B6883F886
:1028F000222038680EF0EEFD3B681B7C012B3B6804
:102900004FF000021A7407F10807BD4680BD00BFF2
:1029100080B400AF40F22C03C2F200031A6840F208
:102920004403C2F201031B68D21840F22C03C2F226
:1029300000031A6040F22C03C2F200031B68184621
:10294000BD4680BC704700BF80B584B000AF034671
:102950003960FB8038680DF085F8F860FB68002B63
:102960000ED0FB689B8C002B0AD0FB689B8CA3F1DC
:1029700028037B817A89FB889A4238BF1346FB8003
:10298000FB88184607F11007BD4680BDB0B588B07A
:1029900002AF7860396043F66C63C2F20103B3F8AA
:1029A0007A3003F101039AB243F66C63C2F2010379
:1029B000A3F87A207B685A6841F6EC03C2F2000360
:1029C0001A607B685C6841F6EC03C2F200031B6886
:1029D0001B889BB2184609F031FA03464FEA1323CD
:1029E0009BB203F00F034FEA8303E21841F6E803BA
:1029F000C2F200031A6041F6EC03C2F200031B6846
:102A00001B889BB2184609F019FA03464FEA1323B4
:102A10009BB203F00F039BB24FEA83039BB2C3F157
:102A200000039BB29BB21BB27868194609F04CF8C0
:102A30000346002B03D17B681B89132B21D843F657
:102A40006C63C2F20103B3F8823003F101039AB25E
:102A500043F66C63C2F20103A3F8822043F66C6371
:102A6000C2F20103B3F87E3003F101039AB243F6D8
:102A70006C63C2F20103A3F87E20786809F09EF827
:102A8000CFE341F6EC03C2F200031B6803F110032D
:102A90001846396804F0E8FB0346002B12D141F6D2
:102AA000EC03C2F200031B681C694FF0704009F090
:102AB000F3F903461C404FF0604009F0EDF903467E
:102AC0009C4221D143F66C63C2F20103B3F8883013
:102AD00003F101039AB243F66C63C2F20103A3F857
:102AE000882043F66C63C2F20103B3F87E3003F131
:102AF00001039AB243F66C63C2F20103A3F87E208D
:102B0000786809F05BF88CE341F6E803C2F2000351
:102B10001B689B899BB2184609F090F903464FEA5F
:102B200013339BB2BB72BB7A9BB21A464FEA823216
:102B3000D31A4FEA83039BB29BB21BB27868194643
:102B400008F0C2FF0346002B21D043F66C63C2F2AB
:102B50000103B3F8823003F101039AB243F66C63C8
:102B6000C2F20103A3F8822043F66C63C2F20103B0
:102B7000B3F87E3003F101039AB243F66C63C2F2FC
:102B80000103A3F87E20786809F018F849E341F6BC
:102B9000E803C2F200031C6841F6E803C2F2000336
:102BA0001B681B889BB2184609F048F9034623802E
:102BB00041F6E803C2F200031C6841F6E803C2F2E2
:102BC00000031B685B889BB2184609F037F903467F
:102BD000638041F6E803C2F200031C6841F6E80393
:102BE000C2F200031B685B68184609F055F90346FA
:102BF0006360626841F6F003C2F200031A6041F6B6
:102C0000E803C2F200031C6841F6E803C2F20003C5
:102C10001B689B68184609F03FF90346A360A26849
:102C200041F6F403C2F200031A6041F6E803C2F26F
:102C300000031C6841F6E803C2F200031B68DB894D
:102C40009BB2184609F0FAF80346E38141F6E8031F
:102C5000C2F200031B689B899BB2184609F0EEF88C
:102C60000346DBB203F03F03DAB241F6F803C2F2E7
:102C700000031A707B681A8941F6F803C2F2000358
:102C80001B7803F00303002B0CBF00230123DBB2EE
:102C9000D3189AB241F6FA03C2F200031A804FF039
:102CA00000033B6140F24003C2F201031B687B61F9
:102CB00043E07B691A8C41F6E803C2F200031B680B
:102CC0001B889BB29A4233D17B691A8B41F6E80389
:102CD000C2F200031B685B889BB29A4228D17B69D1
:102CE0005A6841F6EC03C2F200031B68DB689A42A3
:102CF0001ED17B691A6841F6EC03C2F200031B681F
:102D00001B699A4214D13B69002B1AD07B69DA689F
:102D10003B69DA6040F24003C2F201031A687B6942
:102D2000DA6040F24003C2F201037A691A6008E0F7
:102D30007B693B617B69DB687B617B69002BB8D178
:102D400000E000BF7B69002B40F0878040F2540315
:102D5000C2F201031B687B6133E07B691A8C41F688
:102D6000E803C2F200031B681B889BB29A4225D17C
:102D70007B691A8B41F6E803C2F200031B685B888B
:102D80009BB29A421AD17B695A6841F6EC03C2F2AF
:102D900000031B68DB689A4210D17B691A6841F610
:102DA000EC03C2F200031B681B699A4206D17869E2
:102DB00000F05AFB786808F001FF32E27B69DB68BB
:102DC0007B617B69002BC8D14FF000033B6140F26F
:102DD0004803C2F201031B68FB603BE0FB68002B69
:102DE0000DD0FB681B68002B09D0FB681A6841F600
:102DF000EC03C2F200031B681B699A4225D1FB68F1
:102E00001A8B41F6E803C2F200031B685B889BB291
:102E10009A421AD13B69002B10D0FB68DA683B69F3
:102E2000DA6040F24803C2F201031A68FB68DA6014
:102E300040F24803C2F20103FA681A60F86800F031
:102E4000F5F9786808F0BAFEEBE1FB683B61FB68D6
:102E5000DB68FB60FB68002BC0D17B69002B00F0B6
:102E60007E8141F6D403C2F200034FF000021A60E3
:102E70007B681A8941F6D403C2F200039A817B6809
:102E80005A6841F6D403C2F200039A6041F6D403B3
:102E9000C2F200037A685A6041F6E803C2F2000306
:102EA0001A6841F6D403C2F200031A6141F6001316
:102EB000C2F200034FF000021A6041F6FC03C2F2B6
:102EC00000034FF000021A707B69DB6F002B3CD0CF
:102ED0007B69D3F88430002B0FD07B69D3F8844012
:102EE0007B695A697B69DB6F104679691A464FF036
:102EF0000003A0470346FB720BE07B69DB6F4FF0DA
:102F0000000079691A464FF00003FFF79BFA034669
:102F1000FB7297F90B30002B04D17B694FF0000254
:102F2000DA6712E043F66C63C2F20103B3F87E3055
:102F300003F101039AB243F66C63C2F20103A3F8F2
:102F40007E20786808F03AFE6BE140F25803C2F246
:102F500001037A691A60786900F018FB0346FB7276
:102F600097F90B3013F1050F00F0DB8041F6FC03FD
:102F7000C2F200031B7803F00803002B1AD07B6910
:102F8000D3F89030002B08D07B69D3F890307A6961
:102F9000526910466FF00501984740F24000C2F2B6
:102FA00001007969FFF74AFC4FF00200796902F0ED
:102FB0002FF8B6E041F6FC03C2F200031B7803F0E1
:102FC0001003002B0CD040F24000C2F201007969DE
:102FD000FFF734FC4FF00200796902F019F8A0E025
:102FE0004FF00003FB727B69B3F86C30002B15D0F7
:102FF0007B69D3F88030002B0DD07B69D3F880300B
:103000007A6951697A69B2F86C20084679699847FB
:103010000346FB7202E04FF00003FB7241F600131F
:10302000C2F200031B68002B49D041F6F803C2F23C
:1030300000031B7803F00803002B0ED041F60013A9
:10304000C2F200031A6841F60013C2F200031B68C3
:103050005B7B43F00103DBB253737B69D3F88430AD
:10306000002B12D07B69D3F884407B695A6941F602
:103070000013C2F200031B68104679691A464FF02C
:103080000003A0470346FB720EE041F60013C2F2B4
:1030900000031B684FF0000079691A464FF00003E7
:1030A000FFF7D0F90346FB7297F90B30002B06D0DF
:1030B00041F60013C2F200031A687B69DA6741F631
:1030C000FC03C2F200031B7803F02003002B1ED088
:1030D0007B69D3F88430002B0ED07B69D3F8844011
:1030E0007B695B69184679694FF000024FF0000375
:1030F000A0470346FB720AE04FF0000079694FF0E9
:1031000000024FF00003FFF79DF90346FB7240F207
:103110005803C2F201034FF000021A6078690EF002
:10312000D9F940F25803C2F201034FF000021A60CD
:1031300041F6D403C2F200035B68002B71D041F664
:10314000D403C2F200035B68184608F037FD41F66D
:10315000D403C2F200034FF000025A6061E041F66E
:10316000E803C2F200031B689B899BB2184608F073
:1031700065FE034603F00403002B4FD143F66C6356
:10318000C2F20103B3F8883003F101039AB243F6A7
:103190006C63C2F20103A3F8882043F66C63C2F2A9
:1031A0000103B3F87E3003F101039AB243F66C6376
:1031B000C2F20103A3F87E2041F6F403C2F2000339
:1031C000186841F6FA03C2F200031B881A4641F65A
:1031D000F003C2F200031B68D11841F6EC03C2F2FF
:1031E00000031B6803F1100241F6EC03C2F2000376
:1031F0001B6803F10C0441F6E803C2F200031B68EC
:103200005B889DB241F6E803C2F200031B681B888D
:103210009BB20095019323460EF092FB786808F06C
:10322000CDFC07F11807BD46B0BD00BFB0B586B0F4
:1032300002AF786041F6F803C2F200031B7803F096
:103240001003002B34D041F6F403C2F200031B68D4
:1032500003F1010041F6FA03C2F200031B881A468B
:1032600041F6F003C2F200031B68D11841F6EC03EB
:10327000C2F200031B6803F1100241F6EC03C2F234
:1032800000031B6803F10C0441F6E803C2F20003DB
:103290001B685B889DB241F6E803C2F200031B681D
:1032A0001B889BB20095019323460EF049FBD3E0A7
:1032B00041F6F803C2F200031B7803F00203002B6F
:1032C00000F0CA807B685B7C1846FFF763F9F86002
:1032D000FB68002B11D143F66C63C2F20103B3F813
:1032E000843003F101039AB243F66C63C2F2010326
:1032F000A3F884204FF0FF03B0E041F6EC03C2F2E4
:1033000000031B6803F11003002B06D041F6EC0309
:10331000C2F200031B681B6901E04FF00003FA686A
:1033200013607B681A8BFB681A8341F6EC03C2F2C8
:1033300000031B6803F10C03002B06D041F6EC03DD
:10334000C2F200031B68DB6801E04FF00003FA687B
:10335000536041F6E803C2F200031B681B889AB26F
:10336000FB681A84FB684FF003021A7441F6F003FD
:10337000C2F200031B6803F10102FB685A62FB689A
:103380005A6AFB68DA6241F6E803C2F200031B687E
:10339000DB899AB2FB68A3F85C20FB68B3F85C2079
:1033A000FB68A3F8542041F6F003C2F200031B6847
:1033B00003F1FF32FB681A667B685A69FB685A6141
:1033C0007B68DA69FB68DA617B681A8940F29913D5
:1033D00013409AB2FB681A8140F24003C2F2010323
:1033E0001A68FB68DA6040F24003C2F20103FA682F
:1033F0001A6002F0C7F9F86801F06EFAFB681A8FDC
:10340000FB6803F1040310461946FFF79DFA0346D3
:103410001A46FB681A874FF0000300934FF0010330
:103420000193F8684FF000014FF000024FF01203D3
:103430000DF0C6FC0346FB7297F90B30002B06D04B
:10344000F8684FF00001FEF74DFAFB7A06E0F868E5
:103450000EF040F8034601E04FF000035BB218465F
:1034600007F11007BD46B0BDB0B584B002AF7860BB
:1034700041F6F803C2F200031B7803F00403002BAB
:1034800002D04FF000037BE041F6F803C2F20003E4
:103490001B7803F00203002B4BD041F6F003C2F27D
:1034A00000031A687B685B6AD31A002B51DB41F674
:1034B000F003C2F200031A687B68596A7B681B8DAF
:1034C000CB18D31A002B44DC41F6F403C2F20003FC
:1034D000186841F6FA03C2F200031B881A4641F647
:1034E000F003C2F200031B68D11841F6EC03C2F2EC
:1034F00000031B6803F1100241F6EC03C2F2000363
:103500001B6803F10C0441F6E803C2F200031B68D8
:103510005B889DB241F6E803C2F200031B681B887A
:103520009BB20095019323460EF00AFA4FF0000378
:1035300026E041F6F803C2F200031B7803F0010312
:10354000002B06D040F24403C2F201031A687B68E4
:103550001A6341F6FA03C2F200031B88002B0DD058
:103560007B6893F8223043F00203DAB27B6883F879
:10357000222078680DF0AEFF034601E04FF0000313
:103580005BB2184607F10807BD46B0BDB0B588B0BC
:1035900002AF78604FF00003FB754FF00003BB757E
:1035A00041F6F803C2F200031B7803F00403002B7A
:1035B0004BD07B681B7C022B0CD17B689A6D41F64B
:1035C000F403C2F200031B689A421DD14FF00103BD
:1035D000FB7519E041F6F003C2F200031A687B683C
:1035E0005B6AD31A002B0FDB41F6F003C2F2000333
:1035F0001A687B68596A7B681B8DCB18D31A002B1D
:1036000002DC4FF00103FB75FB7D002B19D041F666
:10361000FC03C2F200031B7843F00803DAB241F660
:10362000FC03C2F200031A707B6893F8223023F087
:103630000103DAB27B6883F822204FF0FA0300F02E
:1036400014BC4FF0000300F010BC41F6F803C2F2C6
:1036500000031B7803F00203002B16D07B681B7C51
:10366000022B12D07B681B7C032B0ED07B6893F857
:10367000223043F00203DAB27B6883F822207868B4
:103680000DF028FF4FF00003EFE340F24403C2F2D5
:1036900001031A687B681A637B684FF0000283F8A5
:1036A0009D20786801F018F97B681B7CA3F1020368
:1036B000072B00F2C98301A252F823F0DD3600087F
:1036C000EB380008893A0008C53A00082B3C00088E
:1036D000893A0008193D0008033E000841F6F80346
:1036E000C2F200031B7803F01003002B00F0C0802F
:1036F00041F6F803C2F200031B7803F00203002B2B
:1037000000F0B6807B689B6F1B695B68184608F009
:10371000C3FB034603F1010241F6F403C2F20003C6
:103720001B689A4240F0A4807B68B3F86E3003F1C6
:1037300001039AB27B68A3F86E2041F6F003C2F24F
:1037400000031B6803F101027B685A627B685A6AB6
:103750007B68DA6241F6F403C2F200031A687B6800
:10376000DA6441F6E803C2F200031B68DB899AB20F
:103770007B68A3F85C2041F6F003C2F200031B68EB
:1037800003F1FF327B681A667B684FF004021A74FB
:103790007B681A8F7B6803F1040310461946FFF714
:1037A000D3F803461A467B681A877B681B8F1A4634
:1037B0004FEA8202D3184FEA43039AB27B68A3F818
:1037C00054207B68B3F85230012B05D17B681B8FE6
:1037D0004FEA43039BB201E07B681B8F7A68A2F833
:1037E00052307B68B3F8703003F1FF339AB27B68D4
:1037F000A3F870207B689B6F3B613B691A687B680C
:103800009A677B689B6F002B04D17B684FF6FF7231
:10381000DA8608E07B684FF00002DA867B684FF0BA
:10382000000283F84A203869FEF7ECFD7B68D3F884
:103830008830002B0CD07B68D3F888307A685269C6
:10384000104679684FF0000298470346BB7502E0C6
:103850004FF00003BB757B6893F8223043F00203FE
:10386000DAB27B6883F8222078680DF033FEEDE24F
:1038700041F6F803C2F200031B7803F01003002B9B
:1038800000F0E48241F6F403C2F20003186841F646
:10389000FA03C2F200031B881A4641F6F003C2F293
:1038A00000031B68D11841F6EC03C2F200031B6849
:1038B00003F1100241F6EC03C2F200031B6803F1AE
:1038C0000C0441F6E803C2F200031B685B889DB25A
:1038D00041F6E803C2F200031B681B889BB2009507
:1038E000019323460EF02CF8B0E241F6F803C2F241
:1038F00000031B7803F01003002B00F0AB807B6803
:10390000DB6C6FEA030241F6F403C2F200031B68AA
:10391000D318002B69DB41F6F403C2F200031A68E6
:103920007B689B6DD31A002B5FDC7B684FF0040231
:103930001A747B68DB69002B0BD07B68DB697A68C3
:103940005269104679684FF0000298470346BB75EC
:1039500002E04FF00003BB7597F91630002B07D03B
:1039600078684FF00101FDF7BDFF4FF0FB037CE2EB
:103970007B68B3F85230FB81786800F07DFA7B6891
:10398000B3F86C30002B08D07B68B3F86C3003F1CF
:10399000FF339AB27B68A3F86C20FB89012B05D119
:1039A0007B681B8F4FEA43039BB201E07B681B8F50
:1039B0007A68A2F8523041F6FC03C2F200031B7889
:1039C00003F02003002B43D07B6893F8223043F0B0
:1039D0000203DAB27B6883F8222078680DF07AFD62
:1039E0007B684FF007021A7432E041F6F403C2F22A
:1039F0000003186841F6FA03C2F200031B881A4656
:103A000041F6F003C2F200031B68D11841F6EC0343
:103A1000C2F200031B6803F1100241F6EC03C2F28C
:103A200000031B6803F10C0441F6E803C2F2000333
:103A30001B685B889DB241F6E803C2F200031B6875
:103A40001B889BB20095019323460DF079FFFFE19F
:103A500000BFFDE141F6F803C2F200031B7803F05A
:103A60000203002B00F0F4817B685B6A03F1FF32F4
:103A700041F6F003C2F200031B689A4240F0E8816D
:103A800078680EF027F8E3E1786800F0F5F941F680
:103A9000FC03C2F200031B7803F02003002B00F0AC
:103AA000D9817B6893F8223043F00203DAB27B6855
:103AB00083F8222078680DF00DFD7B684FF0070237
:103AC0001A74C7E1786800F0D7F941F6FC03C2F236
:103AD00000031B7803F02003002B00F08D8041F6DB
:103AE000F803C2F200031B7803F01003002B72D01E
:103AF0007B689A6D41F6F403C2F200031B689A4298
:103B000069D17B6893F8223043F00203DAB27B6814
:103B100083F8222078680DF0DDFC7868FEF75AFE05
:103B200040F24003C2F201031A687B689A420BD14B
:103B300040F24003C2F201031B68DA6840F240031E
:103B4000C2F201031A602EE040F24003C2F2010308
:103B50001A6840F24C03C2F201031A601CE040F202
:103B60004C03C2F201031B68DA687B689A4208D1F1
:103B700040F24C03C2F201031B687A68D268DA6033
:103B800011E040F24C03C2F201031B68DA6840F214
:103B90004C03C2F201031A6040F24C03C2F201036B
:103BA0001B68002BDBD17B684FF00002DA607B687A
:103BB0004FF00A021A7440F25403C2F201031A6869
:103BC0007B68DA6040F25403C2F201037A681A603B
:103BD00001F0D8FD40E17B6893F8223043F0020306
:103BE000DAB27B6883F8222078680DF073FC7B687A
:103BF0004FF008021A742FE141F6F803C2F20003F5
:103C00001B7803F01003002B00F026817B689A6D6F
:103C100041F6F403C2F200031B689A4240F01C8193
:103C20007B684FF006021A7416E1786800F024F9F8
:103C300041F6FC03C2F200031B7803F02003002BC3
:103C400000F00C817B6893F8223043F00203DAB273
:103C50007B6883F8222078680DF03CFC7868FEF7DA
:103C6000B9FD40F24003C2F201031A687B689A4230
:103C70000BD140F24003C2F201031B68DA6840F244
:103C80004003C2F201031A602EE040F24003C2F288
:103C900001031A6840F24C03C2F201031A601CE0EF
:103CA00040F24C03C2F201031B68DA687B689A4257
:103CB00008D140F24C03C2F201031B687A68D26853
:103CC000DA6011E040F24C03C2F201031B68DA68CB
:103CD00040F24C03C2F201031A6040F24C03C2F2FC
:103CE00001031B68002BDBD17B684FF00002DA6018
:103CF0007B684FF00A021A7440F25403C2F20103C7
:103D00001A687B68DA6040F25403C2F201037A68F1
:103D10001A6001F037FDA1E0786800F0ADF841F6D7
:103D2000F803C2F200031B7803F01003002B00F02D
:103D300097807B689A6D41F6F403C2F200031B681A
:103D40009A4240F08D807868FEF744FD40F24003CF
:103D5000C2F201031A687B689A420BD140F2400319
:103D6000C2F201031B68DA6840F24003C2F20103A9
:103D70001A602EE040F24003C2F201031A6840F2DA
:103D80004C03C2F201031A601CE040F24C03C2F281
:103D900001031B68DA687B689A4208D140F24C0341
:103DA000C2F201031B687A68D268DA6011E040F25F
:103DB0004C03C2F201031B68DA6840F24C03C2F202
:103DC00001031A6040F24C03C2F201031B68002B8E
:103DD000DBD17B684FF00002DA607B684FF00A02AB
:103DE0001A7440F25403C2F201031A687B68DA6065
:103DF00040F25403C2F201037A681A6001F0C2FC77
:103E00002EE0786800F038F841F6F803C2F20003BB
:103E10001B7803F01003002B24D07B689A6D41F6C9
:103E2000F403C2F200031B689A421BD141F6FC0363
:103E3000C2F200031B7843F01003DAB241F6FC0330
:103E4000C2F200031A700DE000BF0CE000BF0AE0F0
:103E500000BF08E000BF06E000BF04E000BF02E0D2
:103E600000BF00E000BF4FF000035BB2184607F14F
:103E70001807BD46B0BD00BFF0B58BB000AF78608D
:103E80004FF00003BB6141F6F803C2F200031B7858
:103E900003F01003002B00F0DD827B68B3F85C3088
:103EA0001A467B685B6ED3187B617B681A6E41F69D
:103EB000F003C2F200031B68D31A002B27DB7B68D8
:103EC0001A6E41F6F003C2F200031B689A4209D150
:103ED0007B685A6E41F6F403C2F200031B68D31AE2
:103EE000002B14DB7B685A6E41F6F403C2F2000328
:103EF0001B689A4232D141F6E803C2F200031B6804
:103F0000DB899AB27B68B3F85C309A4226D941F6D5
:103F1000E803C2F200031B68DB899AB27B68A3F84E
:103F20005C2041F6F003C2F200031A687B681A664F
:103F300041F6F403C2F200031A687B685A667B6894
:103F4000B3F85C30002B09D07B6893F89C30002BD1
:103F500004D07B684FF0000283F89C2041F6F40304
:103F6000C2F200031A687B68DB6CD31A002B66DC94
:103F70007B684FF00002A3F86C2041F6FA03C2F20E
:103F800000031B88002B50D17B685A6E7B68B3F806
:103F90005C30D2187B699A4247D17B68DB8E1BB2BA
:103FA000002B42DB7B68DA6C41F6F403C2F20003BB
:103FB0001B689A4239D14FF00103BB617B6893F8CB
:103FC000503003F101027B6893F850309A4208DDCB
:103FD0007B6893F8503003F10103DAB27B6883F811
:103FE00050207B6893F85030032B16D97B68B3F8C8
:103FF00052207B681B8FD3189AB27B68B3F852307B
:104000009A4212D97B68B3F852207B681B8FD31871
:104010009AB27B68A3F8522007E07B6893F850308F
:10402000032B02D178680DF09DFDBB69002B40F099
:1040300075817B684FF0000283F850206EE17B6849
:10404000DB6C6FEA030241F6F403C2F200031B6863
:10405000D318002BC0F21B8141F6F403C2F2000317
:104060001A687B689B6DD31A002B00F310817B6864
:1040700093F8223003F00403002B0ED07B6893F8F2
:10408000223023F00403DAB27B6883F822207B68B5
:10409000B3F854207B68A3F852207B684FF00002ED
:1040A00083F84A207B68B3F844301BB24FEAE3033D
:1040B0009BB29AB27B68B3F846309BB2D3189BB2DE
:1040C0009AB27B68A3F8482041F6F403C2F20003D9
:1040D0001B689AB27B68DB6C9BB2D31A9AB27B687E
:1040E000A3F86C207B68B3F86E207B68B3F86C3063
:1040F000D3189AB27B68A3F86E207B684FF0000259
:1041000083F8502041F6F403C2F200031A687B687A
:10411000DA647B681B7C032B7BD97B68B3F8522065
:104120007B68B3F854309A4216D27B68B3F85220B9
:104130007B681B8FD3189AB27B68B3F852309A42CF
:1041400067D97B68B3F852207B681B8FD3189AB26B
:104150007B68A3F852205CE07B68B3F852207B6850
:104160001B8F7968098F01FB03F17B68B3F852302C
:1041700091FBF3F39BB2D3187B827B68B3F8523088
:104180007A8A9A4245D97B687A8AA3F8522040E01D
:104190007B689B6FFB607B689B6F1A687B689A6784
:1041A000FB685B68184607F061FD7B68B3F86C300C
:1041B000002B14D0FB681B699B899BB2184607F043
:1041C0003DFE034603F00103002B08D07B68B3F8E3
:1041D0006C3003F1FF339AB27B68A3F86C207B68E4
:1041E000B3F87040FB685B68184607F03FFD034674
:1041F000E31A9AB27B68A3F87020F868FEF702F918
:104200007B68B3F87030002B04D07B689B6F002B69
:1042100000E000BF7B689B6F002B25D07B689B6F05
:104220001B695B68184607F037FE04467B689B6F86
:104230009B891D467B689B6F1B699B899BB21846B7
:1042400007F0FCFD034603F00303002B0CBF002323
:104250000123DBB2EB18E21841F6F403C2F20003CB
:104260001B68D31A002B93DD7B689B6F002B04D156
:104270007B684FF6FF72DA8603E07B684FF000023E
:10428000DA867B684FF0000283F8342046E07B68D2
:104290004FF00002A3F86C2040E07B685B6FFB608E
:1042A0007B685B6F1A687B685A67FB685B681846B7
:1042B00007F0DCFC7B68B3F86C30002B14D0FB6893
:1042C0001B699B899BB2184607F0B8FD034603F0B3
:1042D0000103002B08D07B68B3F86C3003F1FF3387
:1042E0009AB27B68A3F86C207B68B3F87040FB68D7
:1042F0005B68184607F0BAFC0346E31A9AB27B687B
:10430000A3F87020F868FEF77DF87B68B3F870308A
:10431000002B04D07B689B6F002B00E000BF7B6804
:104320005B6F002B2FD041F6F403C2F200031C6830
:104330007B685B6F1B695B68184607F0ADFD05463F
:104340007B685B6F9B891E467B685B6F1B699B89E3
:104350009BB2184607F072FD034603F00303002BDF
:104360000CBF00230123DBB2F318EB18E31A002B78
:1043700009DB41F6F403C2F200031A687B689B6D07
:10438000D31A002B89DD7B68DB6B002B62D07B6846
:104390001A6C41F6F403C2F200031B68D31A002B17
:1043A00058DA40F24403C2F201031B689AB27B68F8
:1043B000DB6B9BB2D31A9BB2FB83FA8B7B68B3F89F
:1043C00044301BB24FEAE3039BB29BB2D31A9BB2B9
:1043D000FB837B68B3F844309AB2FB8BD3189BB253
:1043E0009AB27B68A3F84420B7F91E30002B04DA98
:1043F000FB8BC3F100039BB2FB83FA8B7B68B3F8A2
:1044000046301BB24FEAA3039BB29BB2D31A9BB2B6
:10441000FB837B68B3F846309AB2FB8BD3189BB210
:104420009AB27B68A3F846207B68B3F844301BB28D
:104430004FEAE3039BB29AB27B68B3F846309BB273
:10444000D3189BB29AB27B68A3F848207B684FF0E0
:104450000002DA6341F6FA03C2F200031B88002B64
:1044600000F011827B685A6A41F6F003C2F2000341
:104470001B686FEA0303D318002BC0F29A807B6895
:104480005A6A41F6FA03C2F200031B88194641F644
:10449000F003C2F200031B68CB18D31A03F1010327
:1044A000002B00F386807B685A6A41F6F003C2F263
:1044B00000031B68D31A3B6241F6D403C2F2000327
:1044C0005B687B6241F6D403C2F200035B685B89E0
:1044D0001A463B6A9A422BDA41F6D403C2F2000331
:1044E0005B681A893B6A9BB2D31A7B810EE07B6AB8
:1044F0005B893A6AD31A3B627B6A7A891A817B6A42
:104500004FF000025A817B6A1B687B627B6A5B8981
:104510001A463B6A9A42EADB3B6A9BB2C3F100034C
:104520009BB29BB21BB2786A194607F0CDFA0FE036
:1045300041F6D403C2F200035A683B6A9BB2C3F14E
:1045400000039BB29BB21BB21046194607F0BCFA9F
:104550007B6A5A6841F6D403C2F200039A6041F6BE
:10456000D403C2F200039A8941F6F003C2F20003B9
:104570001B6899B27B685B6A9BB2CB1A9BB2D3185B
:104580009AB241F6D403C2F200039A8141F6D403F1
:10459000C2F200031A697B68596A41F6F003C2F25D
:1045A0000003196041F6F003C2F200031B68536078
:1045B00015E041F6F003C2F200031A687B685B6AFB
:1045C000D31A002B0BDA7B6893F8223043F00203F6
:1045D000DAB27B6883F8222078680CF07BFF41F622
:1045E000F003C2F200031A687B685B6AD31A002BDF
:1045F000C0F2458141F6F003C2F200031A687B68FD
:10460000596A7B681B8DCB18D31A03F10103002B69
:1046100000F335817B685A6A41F6F003C2F2000369
:104620001B689A4240F0268141F6D403C2F200038F
:104630009C8941F6D403C2F200031B699B899BB29B
:10464000184607F0FBFB034603F00303002B0CBFE7
:1046500000230123DBB2E3189AB241F6FA03C2F257
:1046600000031A807B681A8D41F6FA03C2F2000338
:104670001B889A4280F0868041F6D403C2F2000380
:104680001B699B899BB2184607F0D8FB034603F0D1
:104690000103002B27D041F6D403C2F200031C69AA
:1046A00041F6D403C2F200031B699B899DB24FF609
:1046B000C07007F0ABFB03462B409DB241F6D4031C
:1046C000C2F200031B699B899BB2184607F0B6FB38
:1046D000034603F03E039BB2184607F097FB0346E0
:1046E0002B439BB2A3817B681A8D41F6D403C2F29F
:1046F00000039A8141F6D403C2F200031B699B892F
:104700009BB2184607F09AFB034603F00203002B06
:104710000CD041F6D403C2F200039B8903F1FF33AE
:104720009AB241F6D403C2F200039A8141F6D4034F
:10473000C2F200035A6841F6D403C2F200039B8917
:104740001046194607F05AF941F6D403C2F20003A5
:104750009C8941F6D403C2F200031B699B899BB27A
:10476000184607F06BFB034603F00303002B0CBF56
:1047700000230123DBB2E3189AB241F6FA03C2F236
:1047800000031A8041F6FA03C2F200031B881A469E
:1047900041F6F003C2F200031B68D2187B685A622C
:1047A0007B681A8D41F6FA03C2F200031B88D31A04
:1047B0009AB27B681A857868FDF798FA41F6D403B7
:1047C000C2F200035B681B89002B10D041F6D403B2
:1047D000C2F200035A6841F60013C2F200031A60E5
:1047E00041F6D403C2F200034FF000025A6041F6D2
:1047F000D403C2F200031B699B899BB2184607F0E1
:104800001DFB034603F00103002B0CD041F6FC0313
:10481000C2F200031B7843F02003DAB241F6FC0336
:10482000C2F200031A707B6893F8223003F0010390
:10483000002B15D07B6893F8223023F00103DAB205
:104840007B6883F822207B6893F8223043F00203D0
:10485000DAB27B6883F8222078680CF03BFE37E000
:104860007B6893F8223043F00103DAB27B6883F867
:1048700022202DE078680CF0E3FD00BF28E0786886
:104880000CF0DEFD24E041F6F003C2F200031A68EA
:104890007B685B6AD31A002B0EDB41F6F003C2F291
:1048A00000031A687B68596A7B681B8DCB18D31A82
:1048B00003F10103002B0BDD7B6893F8223043F0FA
:1048C0000203DAB27B6883F8222078680CF002FEDB
:1048D00007F12C07BD46F0BD80B586B000AF78600B
:1048E00041F6E803C2F200031B6803F114033B61C5
:1048F00041F6E803C2F200031B689B899BB218468D
:1049000007F09CFA03464FEA13339BB2052B78D984
:1049100041F6E803C2F200031B689B899BB218466C
:1049200007F08CFA03464FEA13339BB2A3F1050359
:104930009BB24FEA8303FB814FF00003FB8256E0FA
:10494000FB8A3A69D3181B787B737B7B012B04D0DD
:10495000022B07D0002B4FD037E0FB8A03F1010375
:10496000FB8244E0FB8A03F101033A69D3181B7808
:10497000042B43D1FB8A03F10402FB899A423DDCFC
:10498000FB8A03F102033A69D3181B784FEA032329
:104990009AB2FB8A03F103033969CB181B781343DE
:1049A0009BB27B817A8940F2B4539A4204D87B89C6
:1049B000002B01D07B8901E040F2B4537A68138761
:1049C000FB8A03F10403FB8211E0FB8A03F101037C
:1049D0003A69D3181B78002B12D0FB8A03F101032C
:1049E0003A69D3181B781A46FB8AD318FB82FA8AD5
:1049F000FB899A42A4D304E000BF02E000BF00E0BC
:104A000000BF07F11807BD4680BD00BF80B58AB062
:104A100000AF786039604FF000037B624FF0000315
:104A20003B624FF00003FB614FF00003BB617B680A
:104A30001B8A9BB27B627B6A23F440537B623B6898
:104A4000DB887A6A13437B627B6A9AB27B681A823C
:104A50007B689B899BB27B627B6A23F4B05323F013
:104A60000C037B623B689A883B681B8913439AB2AC
:104A70003B685B8913439BB27A6A13437B627B6A10
:104A80009AB27B689A817B689B8A9BB27B627B6AC5
:104A900023F440737B623B689B897A6A13437B6291
:104AA0007B6A9AB27B689A8207F10803184602F083
:104AB000A3FE7A684FF48053C4F201039A4206D0F1
:104AC0007A684FF4A053C4F201039A4202D17B6981
:104AD0003B6201E03B693B627B689B899BB29BB276
:104AE0001BB2002B0FDA3A6A13464FEA83039B1876
:104AF0004FEA83029A183B681B684FEA4303B2FBF4
:104B0000F3F3FB610EE03A6A13464FEA83039B1806
:104B10004FEA83029A183B681B684FEA8303B2FB93
:104B2000F3F3FB61FA6948F21F53C5F2EB13A3FBE1
:104B300002134FEA53134FEA03137B627B6A4FEA77
:104B400013134FF0640202FB03F3FA69D31ABB613B
:104B50007B689B899BB29BB21BB2002B12DABB69AC
:104B60004FEAC30303F1320248F21F53C5F2EB13BD
:104B7000A3FB02134FEA531303F007037A6A1343AC
:104B80007B6211E0BB694FEA031303F1320248F282
:104B90001F53C5F2EB13A3FB02134FEA531303F0A9
:104BA0000F037A6A13437B627B6A9AB27B681A812D
:104BB00007F12807BD4680BD80B485B000AF78609E
:104BC00039604FF00003FB607B681B8A9BB2FB607F
:104BD000FB6823F47063FB603B681A883B685B8862
:104BE00013439AB23B689B8813439AB23B68DB88B5
:104BF00013439BB2FA681343FB60FB689AB27B686D
:104C00001A8207F11407BD4680BC704780B483B098
:104C100000AF78607B684FF000021A807B684FF02D
:104C200000025A807B684FF000029A807B684FF048
:104C30000002DA8007F10C07BD4680BC704700BF58
:104C400080B483B000AF78600B46FB70FB78002B1C
:104C500008D07B689B899BB243F400539AB27B686F
:104C60009A8107E07B689B899BB223F400539AB238
:104C70007B689A8107F10C07BD4680BC704700BF76
:104C800080B483B000AF786013460A467A807B70A8
:104C90007B78002B08D07B689B8A9AB27B88134371
:104CA0009AB27B689A820AE07B689B8A9AB27B8878
:104CB0006FEA03039BB213409AB27B689A8207F1B2
:104CC0000C07BD4680BC704780B487B000AF7860E9
:104CD00013460A467A807B704FF000033B614FF029
:104CE0000003FB604FF00003BB604FF000037B61EB
:104CF0007B687B617B88DBB24FEA5313DBB23B619D
:104D00007B8803F01F03FB60FB684FF0010202FA8F
:104D100003F3BB603B69012B04D17B6903F10C03F6
:104D20007B610BE03B69022B04D17B6903F110032B
:104D30007B6103E07B6903F114037B617B78002BCB
:104D400006D07B697A691168BA680A431A6007E07D
:104D50007B697A691168BA686FEA02020A401A60D0
:104D600007F11C07BD4680BC704700BF80B483B00C
:104D700000AF4FF000037B804DE0798843F66C6212
:104D8000C2F201020B464FEA83035B184FEA43036A
:104D9000D31803F19C034FF000021A80798843F680
:104DA0006C62C2F201020B464FEA83035B184FEAC2
:104DB0004303D31803F19E034FF000021A80798851
:104DC00043F66C62C2F201020B464FEA83035B18A2
:104DD0004FEA4303D31803F1A0034FF000021A80F7
:104DE00079887A8843F65013C0F6010333F812002D
:104DF00043F66C62C2F201020B464FEA83035B1872
:104E00004FEA4303D31803F19A0302461A807B88C2
:104E100003F101037B807B880B2BAED941F6341361
:104E2000C2F2000303F1030323F003037B604FF09E
:104E300000037B8039E07A8841F60413C2F2000354
:104E40004FF0000143F822104FF000033B801EE0BA
:104E50007A8841F60413C2F2000353F822207B68DB
:104E60001A607A8841F60413C2F20003796843F8A5
:104E700022107A8843F63813C0F6010333F8123053
:104E80007A68D3187B603B8803F101033B807A8802
:104E900043F65013C0F6010333F812303A889A42B1
:104EA000D6D37B8803F101037B807B880B2BC2D98F
:104EB00007F10C07BD4680BC704700BF80B485B0C9
:104EC00000AF0346FB71FB790B2B02D94FF00003B7
:104ED00098E0FA7941F60413C2F2000353F8223045
:104EE000FB60FB68002B69D0FA79FB68196841F612
:104EF0000413C2F2000343F82210FA7943F66C61FE
:104F0000C2F2010113464FEA83039B184FEA4303A1
:104F1000CB1803F19C031B8803F1010398B243F6FD
:104F20006C61C2F2010113464FEA83039B184FEAFA
:104F30004303CB1803F19C0302461A80F97943F628
:104F40006C62C2F201020B464FEA83035B184FEA20
:104F50004303D31803F19E031888F97943F66C6272
:104F6000C2F201020B464FEA83035B184FEA430388
:104F7000D31803F19C031B88984241D2F979F87940
:104F800043F66C62C2F2010203464FEA83031B1828
:104F90004FEA4303D31803F19C03188843F66C626D
:104FA000C2F201020B464FEA83035B184FEA430348
:104FB000D31803F19E0302461A8022E0FA7943F6E1
:104FC0006C61C2F2010113464FEA83039B184FEA5A
:104FD0004303CB1803F1A0031B8803F1010398B22C
:104FE00043F66C61C2F2010113464FEA83039B183A
:104FF0004FEA4303CB1803F1A00302461A8000E0F6
:1050000000BFFB68184607F11407BD4680BC704717
:1050100080B485B000AF03463960FB713B68002B5C
:1050200034D03B68FB60FA7943F66C61C2F201014F
:1050300013464FEA83039B184FEA4303CB1803F14F
:105040009C031B8803F1FF3398B243F66C61C2F2F4
:10505000010113464FEA83039B184FEA4303CB1821
:1050600003F19C0302461A80FA7941F60413C2F256
:10507000000353F82220FB681A60FA7941F6041302
:10508000C2F20003F96843F8221000E000BF07F104
:105090001407BD4680BC704780B400AFBD4680BCDD
:1050A000704700BF80B584B000AF78604FF0010357
:1050B000FB73FB7B002B11D07B681B6A1B7A002BD8
:1050C00003D0786800F0E2F80BE0786800F084F82C
:1050D0007B681B6A4FF064021A7202E0786800F085
:1050E000D5F807F11007BD4680BD00BF80B584B07C
:1050F00000AF786039607B6893F82B301A467B6884
:1051000093F82C304FEA03231A434FF48073CAF606
:10511000FE13D318184606F0A1FE0346184606F003
:10512000BBFEF8607B681B6A5B7AFA68D318FB6089
:10513000FB684FEA03434FEA134343F0294343F428
:105140007E03FB60FA684FF0FF03CAF6FE139A4233
:1051500003D8FB6803F57E43FB60FA684FF6FF63F4
:10516000CAF6FE139A4203D9FB68A3F57E43FB609F
:10517000F86806F073FE02463B681A6007F11007F4
:10518000BD4680BD90B587B004AF78607B6803F101
:1051900027027B6803F127047B681B6A19464EF2DD
:1051A0002C33C0F6010300934EF6D453C0F601032E
:1051B000019302914FF001030393786811464EF674
:1051C000CC52C0F60102234604F074FF0346184691
:1051D00007F10C07BD4690BD90B587B004AF78606D
:1051E0007B6803F127027B6803F127047B681B6A55
:1051F0007968096A00934EF6D453C0F6010301930F
:1052000002914FF001030393786811464EF6CC5299
:10521000C0F60102234604F04DFF0346184607F18D
:105220000C07BD4690BD00BF80B586B000AF78606A
:105230007B681B6A7B614FF00000CFF6FF7006F0C1
:105240000DFE03463B614FF0000006F007FE0346EB
:10525000FB607B697868194606F09AFE07F1100337
:105260007868194606F004FF07F10C0378681946C0
:1052700006F0EAFE786806F01FFF4FF000035BB20D
:10528000184607F11807BD4680BD00BF80B584B041
:1052900000AF78607B681B6AFB604FF00003FB7215
:1052A000786806F049FF0346002B02D0786806F0C4
:1052B00029FF7B684FF000025A607B684FF00002C4
:1052C0009A607B684FF00002DA60FB68002B15D112
:1052D0004FF00A00FBF7E2F9F860FB68002B02D1FF
:1052E0004FF0FF0332E0F8684FF000014FF00A0280
:1052F0000DF050FB7B68FA681A6217E0FB684FF00C
:1053000000021A71FB684FF00002DA80FB684FF070
:1053100000025A71FB6818464FF000014FF004027A
:105320000DF038FBFB684FF000021A72FB687868DA
:105330001946FFF7DBFEFB685B7A03F10103DAB283
:10534000FB685A72786800F007F8FB7A5BB218467F
:1053500007F11007BD4680BD80B485B000AF78600E
:105360007B681B6AFB60FB684FF001021A71FB68E7
:105370004FF000025A717B6893F82C304FEA0362B9
:105380007B6893F82A304FEA03431A437B6893F80B
:1053900029304FEA03231A437B6893F82B301A43D2
:1053A0007B681B6A002B03D07B681B6A5B7A01E079
:1053B0004FF00003D1184CF6CD43CCF6CC43A3FB01
:1053C00001234FEAD30213464FEA83039B184FEAA7
:1053D0004303CA1A92B2FB68DA80FB685B7A0A2B35
:1053E00003D9FB684FF41672DA8007F11407BD4643
:1053F00080BC704780B582B000AF43F68C73C2F2B8
:1054000001031B687B60B8E07B681B6A002B00F01F
:10541000B1807B681B6A1B7A002B06D07B681B6AF5
:105420001A7A02F1FF32D2B21A727B681B6A1B79B8
:10543000012B02D0022B63D09CE07B681B6ADB88C7
:10544000002B07D07B681B6ADA8802F1FF3292B228
:10545000DA808FE07B681B6A5B79022B0FD97B684F
:105460001B6A4FF002021A717B681B6A4FF0000240
:105470005A717B681B6A4FF01402DA807AE0786810
:10548000FFF780FE7B681B6A5A7902F10102D2B2F3
:105490005A717B68186A7B6893F82C304FEA036274
:1054A0007B6893F82A304FEA03431A437B6893F8EA
:1054B00029304FEA03231A437B6893F82B301A43B1
:1054C0007B681B6A002B03D07B681B6A5B7A01E058
:1054D0004FF00003D1184CF6CD43CCF6CC43A3FBE0
:1054E00001234FEAD30213464FEA83039B184FEA86
:1054F0004303CA1A93B203F10A039BB2C38039E093
:105500007B681B6ADB88002B07D07B681B6ADA8804
:1055100002F1FF3292B2DA802BE07B681B6A5B7982
:10552000002B03D17868FFF77FFE02E07868FFF771
:1055300053FE7B681B6A4FF01402DA807B681B6A9B
:105540005A7902F10102D2B25A717B681B6A5B7907
:10555000012B0ED97B681B6A4FF003021A717B681E
:105560001B6A4FF000025A717B681B6A4FF0000201
:10557000DA8000BF7B681B687B607B68002B7FF450
:1055800043AF07F10807BD4680BD00BF80B586B0B8
:1055900000AF786039607B681B6A002B70D07B6835
:1055A0001B6A1B79002B6BD07B6893F827303B720A
:1055B0007B6893F828307B727B6893F82930BB7244
:1055C0007B6893F82A30FB727B6893F82B303B732F
:1055D0007B6893F82C307B733A6807F1140302F16F
:1055E0000E02106818603A6807F1100302F1180201
:1055F000106818607B681B6A1B79012B09D07B68D7
:105600001B6A1B79022B22D17B681B6A5B79002BFA
:105610001DD17A697B681B6A1B689A4213D03A696C
:105620007B681B6A1B689A4229D13B6803F1080317
:1056300007F10802104619464FF006020DF0ACF8CB
:105640000346002B1BD07868FFF720FE17E07A692D
:105650007B681B6A1B689A4212D13B6803F10803FE
:1056600007F10802104619464FF006020DF094F8B3
:105670000346002B04D07868FFF714FD00E000BF5C
:1056800007F11807BD4680BD80B582B000AF7860D5
:105690007B68002B15D07B681B68002B0CD07B68C7
:1056A0001B68184606F08AFA7B684FF000025A60C1
:1056B0007B685A687B681A604FF005007968FFF7CD
:1056C000A7FC07F10807BD4680BD00BF80B485B0C8
:1056D00000AFF860B9607A60FB68002B02D14FF030
:1056E000F6031EE0BB68002B02D14FF0F60318E072
:1056F0007B68002B02D14FF0F60312E0FB685B6879
:10570000002B02D14FF0FE030BE0FB685B685A6888
:10571000BB681A60FB685B685A897B681A804FF027
:1057200000035BB2184607F11407BD4680BC704702
:1057300080B582B000AF7860FBF7D4FF40F2400341
:10574000C2F201031B68002B06D140F25403C2F2DF
:1057500001031B68002B0AD04FF0FA0045F23171AB
:10576000C0F600014FF0000201F0B6FC06E045F281
:105770002443C2F200034FF000021A6007F1080749
:10578000BD4680BD80B500AF45F22443C2F20003A0
:105790001B68002B1ED140F24003C2F201031B68BC
:1057A000002B06D140F25403C2F201031B68002B08
:1057B00010D045F22443C2F200034FF001021A60F8
:1057C0004FF0FA0045F23171C0F600014FF00002CF
:1057D00001F082FC80BD00BF80B582B000AF786070
:1057E00003F046FF41F2883045F2D971C0F600015E
:1057F0004FF0000201F070FC07F10807BD4680BDC4
:1058000080B582B000AF7860FFF7F4FD4FF0640020
:1058100045F60101C0F600014FF0000201F05CFC0A
:1058200007F10807BD4680BD80B584B000AF786041
:1058300041F2883045F2D971C0F600014FF0000204
:1058400001F04AFC4FF0640045F60101C0F600018A
:105850004FF0000201F040FC45F21843C2F2000391
:105860001B68002B0BD045F21843C2F200031A68E4
:1058700045F21C43C2F200031B681846904745F2EC
:105880002043C2F200031A6807F10C0310461946C0
:1058900001F0C2FBFB681B78042B65D801A252F80B
:1058A00023F000BFB9580008CD5800080D59000872
:1058B000275900084B590008FB689B681B68FA6869
:1058C000926802F10402104698474EE0FB68DB68DC
:1058D00093F82D3003F02003002B08D0FB689A6862
:1058E000FB68DB681046194604F0D4FC07E0FB684F
:1058F0009A68FB68DB68104619460AF003F9FB68F2
:105900004FF008001946FFF783FB2EE0FB689B6809
:10591000FA68D26810469847FB684FF007001946AE
:10592000FFF776FB21E0FB689968FB68DA68FB68A3
:105930001B69084611461A4601F0CEFBFB684FF082
:1059400007001946FFF764FB0FE0FB68DA68FB68A5
:105950001B691046194601F037FCFB684FF0070041
:105960001946FFF755FB00E000BF88E780B584B01B
:1059700000AF7860396045F22043C2F200031B6833
:10598000002B2BD04FF00800FFF798FAF860FB6867
:10599000002B02D14FF0FF0322E0FB684FF0010221
:1059A0001A70FB687A689A60FB683A68DA6045F2B8
:1059B0002043C2F200031B681846F96808F0C0F9DA
:1059C0000346002B07D04FF00800F968FFF720FBD3
:1059D0004FF0FF0304E04FF0000301E04FF0F70346
:1059E0005BB2184607F11007BD4680BD80B588B090
:1059F00000AF786045F22043C2F200031B68002B21
:105A00001AD04FF000033B737B687B6145F2204363
:105A1000C2F200031A6807F10C031046194608F099
:105A200079F97B685B68DB6818464FF0000108F085
:105A300085FA4FF0000301E04FF0F7035BB2184620
:105A400007F12007BD4680BD80B584B002AF786005
:105A5000396002F03DFE45F21843C2F200037A6855
:105A60001A6045F21C43C2F200033A681A604FF014
:105A7000050008F0E3F8024645F22043C2F20003B5
:105A80001A604FF01203009343F66810C0F601004D
:105A900045F62901C0F600014FF000024FF47A7379
:105AA00008F010FB07F10807BD4680BD80B483B045
:105AB00000AF4FF000037B6032E040F25C02C2F2C4
:105AC000010279680B464FEA43035B184FEAC303B0
:105AD000D31803F110031B79002B1DD140F25C0297
